:020000040800F2
:100000000010002029040008314804084148040871
:10001000B149040841480408F1480408E303000812
:10002000E3030008E3030008E3030008D15E0508CA
:10003000E3030008E3030008E3030008C1E2040847
:10004000E3030008E3030008E3030008E3030008F8
:10005000E3030008E3030008F19404085195040841
:10006000B19504081196040871960408D1AE0408ED
:1000700021AF040871AF0408C1AF040811B004082F
:1000800061B00408B1B00408519D040891A80408A7
:10009000C1A80408F1A8040821A90408D1960408FD
:1000A000E3030008E3030008E3030008E303000898
:1000B000E3030008E303000821E5040871BD040818
:1000C000A1BD0408E3030008E3030008E3030008FC
:1000D000E303000811EC040841EC040871EC040887
:1000E000B1970408E3030008E3030008E3030008F2
:1000F000E3030008E3030008E303000801B1040878
:10010000E3030008E303000821E30408E303000815
:10011000E3030008E3030008E3030008E303000827
:1001200051B10408A1B10408F1B1040841B20408B6
:1001300091B20408E3030008E303000851A904088E
:1001400081A90408B1A90408E1A9040821CA040886
:10015000E1B2040831B3040881B30408E3030008E2
:10016000E3030008E3030008E3030008E3030008D7
:10017000E3030008E3030008E3030008E3030008C7
:10018000E3030008E3030008E3030008E3030008B7
:10019000E3030008E3030008E3030008E3030008A7
:1001A000E3030008E3030008E3030008E303000897
:1001B000E3030008E3030008E3030008E303000887
:1001C000E3030008E3030008E3030008E303000877
:1001D000E3030008E3030008E3030008E303000867
:1001E000B15D0008217E0008A1A90008A1AC0008AB
:1001F00041AE000831B10008B1C50008E1CB0008EC
:1002000091D1000841D70008F1EC000861F2000824
:1002100061F6000891370108013B010851460108C9
:10022000415E0108916C0108B1810108F188010863
:10023000319A0108A1A00108F1B3010831B9010800
:10024000B1C4010831C6010851C9010841CB0108F8
:1002500041E80108A1060208412E020841330208C4
:1002600021490208C157020821580208016002080A
:10027000E1750208818C020861B0020831C50208EC
:10028000611D030841280308512D03083139030873
:10029000C1430308219B0308019F0308F1A403083D
:1002A000C1BF030861E0030871EF0308514F040860
:0402B000A167040836
:1002C00072B6394880F30888384880F3098838487E
:1002D0004EF60851CEF20001086040F20000CCF268
:1002E00000004EF63471CEF200010860BFF34F8F6C
:1002F000BFF36F8F40F20000C0F2F0004EF688515D
:10030000CEF200010860BFF34F8FBFF36F8F4FF045
:100310000000E1EE100A4EF63C71CEF200010860DA
:10032000062080F31488BFF36F8F53F0F1FC4EF07A
:10033000DFFD4FF055301F491B4A91423CBF41F849
:10034000040BFAE71C49194A91423CBF41F8040BDF
:10035000FAE71A491A4A1B4B9A423EBF51F8040B5E
:1003600042F8040BF8E700201749184A91423CBFB5
:1003700041F8040BFAE753F0E3FC53F0D1FC144CC2
:10038000144DAC4203DA54F8041B8847F9E70AF02D
:10039000D7FE114C114DAC4203DA54F8041B8847C8
:1003A000F9E753F0C5BC0000001000200016002043
:1003B000000000080000002000100020A0380708FE
:1003C0000016002034260020402600206CEE01207C
:1003D000E0010008B4020008B4020008B4020008FA
:1003E0006EE700F000F8FEE72DE9F04F2DED108AE2
:1003F000C1F80CD0C3689D46BDEC108ABDE8F08FF3
:1004000055F086FD53F054FF002383F311882846EE
:10041000A047002054F03CFE53F032FF54F060FB44
:1004200053F046FF00DFFEE70A480B490268006010
:100430008A4201D0FFF744FF08484FF48041016031
:1004400007484FF0010101600648D0F800D040682D
:1004500000470000F0FF0120EFBEADDE443802404F
:10046000003801400000FF1F0000000000000000F5
:10047000000000000000000000000000000000007C
:10048000A2EB0300704700BF02780B78012A28BF57
:100490009A42F5D16DE9044540EA0104CDE90267CD
:1004A0006FF0000C4FEA447212B380EA010414F0BA
:1004B000070F6AD100F0070420F0070004F00305DD
:1004C00021F007014FEAC505F0E8042314F0040FFA
:1004D000F1E804670CFA05F462EA040266EA04062D
:1004E0000AD063EA0403624667EA0407664603E04B
:1004F000F0E80423F1E8046782FA4CF582EA060486
:10050000A4FA8CF46CBB83FA4CF583EA0705A5FAD0
:100510008CF595B950E9022351E9026782FA4CF54E
:1005200082EA0604A4FA8CF483FA4CF583EA070500
:10053000A5FA8CF52543DBD09CB92DBAB5FA85F424
:1005400024F0070427FA04F1DDE9026723FA04F333
:1005500003F0FF0001F0FF01FDE80445A0EB0100FE
:10056000704724BAB4FA84F424F0070426FA04F19C
:10057000DDE9026722FA04F202F0FF0001F0FF0158
:10058000FDE80445A0EB0100704714F0030F3CD1D7
:1005900010F0030428D150F8082B51F8083B82FAD8
:1005A0004CF582EA0305A5FA8CF55DB950F8042CE8
:1005B00051F8043C82FA4CF582EA0305A5FA8CF561
:1005C000002DE8D02DBAB5FA85F424F0070423FAFB
:1005D00004F122FA04F202F0FF0001F0FF01FDE84D
:1005E0000445A0EB010070474FEAC40420F003006B
:1005F00050F8082B21F0030151F8083B0CFA04F4E1
:1006000062EA040263EA0403C9E710F003041AD0A3
:10061000A1EB040120F00300E40750F8042B06D0FE
:100620000FD28B785FFAA2F4E41A06D12BB1CB7803
:100630005FFAB2F4E41A00D11BB920465DF8104B02
:10064000704701F1040150F8042BCC0721F003019D
:1006500051F8043B48D824D222F07F4482FA4CF56A
:1006600094EA1325A5FA8CF50AD165B951F8043B33
:1006700084EA0204B4EB036F0ED150F8042BEBE7CD
:100680004FEA132355E035F07F454DD10878FDE85A
:100690000445C0F1000070474FEA126203F0FF0307
:1006A00047E002EA1C4482FA4CF594EA1345A5FAA5
:1006B0008CF50AD165B951F8043B84EA0204B4EB25
:1006C000034F0CD150F8042BEBE74FEA134330E013
:1006D00015EA1C4528D10B884FEA124229E04FEA5F
:1006E000124203EA1C4324E002F0FF0482FA4CF5B4
:1006F00094EA1365A5FA8CF50AD165B951F8043B63
:1007000084EA0204B4EB032F09D150F8042BEBE781
:100710004FEA13630DE015F0FF0F05D10B684FEAA8
:10072000122223F07F4304E04FF00000FDE804456F
:10073000704712BA1BBA82FA4CF482EA0304A4FA94
:100740008CF5B5FA85F402FA04F203FA04F34FEAE1
:100750001260FDE80445A0EB136070470000000044
:100760000000000000000000000000000000000089
:100770000000000000000000000000000000000079
:1007800090F800F06DE9024520F007016FF0000CD1
:1007900010F0070491F820F040F049804FF0000479
:1007A0006FF00700D1E9002391F840F000F1080054
:1007B00082FA4CF2A4FA8CF283FA4CF3A2FA8CF38C
:1007C0004BBBD1E9022382FA4CF200F10800A4FAF3
:1007D0008CF283FA4CF3A2FA8CF3E3B9D1E9042347
:1007E00082FA4CF200F10800A4FA8CF283FA4CF37E
:1007F000A2FA8CF37BB9D1E9062301F1200182FA38
:100800004CF200F10800A4FA8CF283FA4CF3A2FA3D
:100810008CF3002BC6D0002A04BF04301A4612BA4B
:10082000B2FA82F2FDE8024500EBD2007047D1E94E
:10083000002304F00305C4F100004FEAC50514F0DD
:10084000040F91F840F00CFA05F562EA05021CBFAE
:1008500063EA050362464FF00004A9E7844641EAD3
:10086000000313F003036DD1403A41D351F8043B28
:1008700040F8043B51F8043B40F8043B51F8043B7A
:1008800040F8043B51F8043B40F8043B51F8043B6A
:1008900040F8043B51F8043B40F8043B51F8043B5A
:1008A00040F8043B51F8043B40F8043B51F8043B4A
:1008B00040F8043B51F8043B40F8043B51F8043B3A
:1008C00040F8043B51F8043B40F8043B51F8043B2A
:1008D00040F8043B51F8043B40F8043B51F8043B1A
:1008E00040F8043B51F8043B40F8043B403ABDD289
:1008F000303211D351F8043B40F8043B51F8043B2B
:1009000040F8043B51F8043B40F8043B51F8043BE9
:1009100040F8043B103AEDD20C3205D351F8043BB9
:1009200040F8043B043AF9D2043208D0D2071CBF85
:1009300011F8013B00F8013B01D30B8803806046AE
:10094000704700BF082A13D38B078DD010F0030324
:100950008AD0C3F10403D21ADB071CBF11F8013B94
:1009600000F8013B80D331F8023B20F8023B7BE7E3
:10097000043AD9D3013A11F8013B00F8013BF9D20E
:100980000B7803704B7843708B78837060467047A8
:1009900001F0FF01102A2BDB10F0070F08D010F830
:1009A000013B013A8B422DD010F0070F42B3F6D134
:1009B000F0B441EA012141EA014122F007047FF04D
:1009C00000070023F0E80256083C85EA010586EAA4
:1009D000010685FA47F5A3FA87F586FA47F6A5FAE0
:1009E00087F68EB9EED1F0BC01F0FF0102F00702EC
:1009F00032B110F8013B013A83EA010313B1F8D197
:100A00000020704701387047002D06BF3546033877
:100A1000073815F0010F07D1013015F4807F02BFB0
:100A2000013015F4C03F0130F0BC0138704700BF01
:100A30007BB972B90029BEBF00204FF0004106E02B
:100A400008BF00281CBF6FF000414FF0FF3000F0DE
:100A5000BDB9ADF1080C6DE904CE002909DB002B0E
:100A60001ADB00F04DF8DDF804E0DDE9022304B004
:100A70007047404261EB4101002B1BDB00F040F866
:100A8000DDF804E0DDE9022304B0404261EB4101FE
:100A9000524263EB43037047524263EB430300F05F
:100AA0002FF8DDF804E0DDE9022304B0404261EBF9
:100AB00041017047524263EB430300F021F8DDF837
:100AC00004E0DDE9022304B0524263EB43037047C4
:100AD00053B94AB9002908BF00281CBF4FF0FF31A5
:100AE0004FF0FF3000F072B9ADF1080C6DE904CEA3
:100AF00000F006F8DDF804E0DDE9022304B07047F9
:100B00002DE9F047089E04468846002B4BD18A42C7
:100B1000154667D9B2FA82F24AB1C2F1200701FA4A
:100B200002F320FA07F7954047EA030894404FEA9A
:100B3000154E230CB8FBFEF71FFA85FC0EFB178839
:100B400043EA084307FB0CF1994209D9EB1807F176
:100B5000FF3080F01B81994240F21881023F2B4404
:100B60005B1AA4B2B3FBFEF00EFB103344EA03445D
:100B700000FB0CFCA44509D92C1900F1FF3380F0CF
:100B80000781A44540F2048102382C4440EA074022
:100B9000A4EB0C0400271EB1D4400023C6E9004397
:100BA0003946BDE8F0878B4209D9002E00F0EB8072
:100BB0000027C6E9000138463946BDE8F087B3FA98
:100BC00083F7002F47D18B4202D3824200F2FA8092
:100BD000841A61EB030301209846002EE0D0C6E999
:100BE0000048DDE702B9FFDEB2FA82F2002A40F0E7
:100BF0008F80491B4FEA154E1FFA85F80127B1FB7C
:100C0000FEFC230C0EFB1C1143EA014308FB0CF114
:100C1000994207D9EB180CF1FF3002D2994200F249
:100C2000CD808446591AA3B2B1FBFEF00EFB10141E
:100C300043EA044408FB00F8A04507D92C1900F149
:100C4000FF3302D2A04500F2B6801846A4EB080498
:100C500040EA0C409FE7C7F1200CBB4022FA0CFE93
:100C60004EEA030E01FA07F420FA0CF521FA0CF310
:100C70004FEA1E482543B3FBF8F92C0C08FB193347
:100C80001FFA8EFA44EA034309FB0AF49C4202FA73
:100C900007F200FA07F10BD91EEB030309F1FF304D
:100CA00080F087809C4240F28480A9F1020973445D
:100CB0001B1BADB2B3FBF8F008FB103345EA03444D
:100CC00000FB0AFAA24508D91EEB040400F1FF3329
:100CD0006BD2A24569D90238744440EA0940A0FBAE
:100CE0000289A4EB0A044C45C2464B4654D351D06A
:100CF000002E69D0B1EB0A0564EB030404FA0CFC86
:100D0000FD40FC404CEA0505C6E90054002747E7D2
:100D1000C2F1200320FA03F7954001FA02F021FA0C
:100D200003F34FEA154E3843010CB3FBFEF71FFAED
:100D300085F80EFB173341EA034107FB08F38B42AA
:100D400004FA02F407D9691807F1FF3C2FD28B424D
:100D50002DD9023F2944CB1A81B2B3FBFEF00EFB22
:100D6000103341EA034100FB08F38B4207D96918AD
:100D700000F1FF3C17D28B4215D902382944C91A19
:100D800040EA07473BE73746304609E70746E7E6CC
:100D90001846FBE64145ABD2B8EB020A69EB0E02FE
:100DA00001381346A4E76046E9E7184695E7674629
:100DB000D1E781467CE702382C4447E7ACF1020CCE
:100DC0002B442FE7384608E73746E9E6704700BF6F
:100DD00081F0004102E000BF83F0004330B54FEAEC
:100DE00041044FEA430594EA050F08BF90EA020F59
:100DF0001FBF54EA000C55EA020C7FEA645C7FEAEC
:100E0000655C00F0E2804FEA5454D4EB5555B8BF0E
:100E10006D420CDD2C4480EA020281EA030382EA7F
:100E2000000083EA010180EA020281EA0303362D11
:100E300088BF30BD11F0004F4FEA01314FF4801CE4
:100E40004CEA113102D0404261EB410113F0004FF6
:100E50004FEA03334CEA133302D0524263EB4303AD
:100E600094EA050F00F0A780A4F10104D5F1200E4B
:100E70000DDB02FA0EFC22FA05F2801841F10001A6
:100E800003FA0EF2801843FA05F359410EE0A5F17A
:100E900020050EF1200E012A03FA0EFC28BF4CF0AB
:100EA000020C43FA05F3C01851EBE37101F0004561
:100EB00007D54FF0000EDCF1000C7EEB00006EEB6E
:100EC0000101B1F5801F1BD3B1F5001F0CD34908F8
:100ED0005FEA30004FEA3C0C04F101044FEA44524F
:100EE00012F5800F80F09A80BCF1004F08BF5FEAD6
:100EF000500C50F1000041EB045141EA050130BDB6
:100F00005FEA4C0C404141EB010111F4801FA4F158
:100F10000104E9D191F0000F04BF01460020B1FAAD
:100F200081F308BF2033A3F10B03B3F120020CDAE5
:100F30000C3208DD02F1140CC2F10C0201FA0CF0C3
:100F400021FA02F10CE002F11402D8BFC2F1200C28
:100F500001FA02F120FA0CFCDCBF41EA0C019040DE
:100F6000E41AA2BF01EB0451294330BD6FEA040427
:100F70001F3C1CDA0C340EDC04F11404C4F1200212
:100F800020FA04F001FA02F340EA030021FA04F324
:100F900045EA030130BDC4F10C04C4F1200220FA7B
:100FA00002F001FA04F340EA0300294630BD21FAB9
:100FB00004F0294630BD94F0000F83F4801306BF7F
:100FC00081F480110134013D4EE77FEA645C18BF73
:100FD0007FEA655C29D094EA050F08BF90EA020F0A
:100FE00005D054EA000C04BF1946104630BD91EA02
:100FF000030F1EBF0021002030BD5FEA545C05D105
:101000004000494128BF41F0004130BD14F5800443
:101010003CBF01F5801130BD01F0004545F0FE41B7
:1010200041F470014FF0000030BD7FEA645C1ABFEC
:10103000194610467FEA655C1CBF0B46024650EA23
:10104000013406BF52EA033591EA030F41F400214F
:1010500030BD00BF90F0000F04BF0021704730B5D5
:101060004FF4806404F132044FF000054FF00001AA
:1010700050E700BF90F0000F04BF0021704730B56B
:101080004FF4806404F1320410F0004548BF404240
:101090004FF000013EE700BF42004FEAE2014FEA95
:1010A00031014FEA02701FBF12F07F4393F07F4F70
:1010B00081F06051704732F07F4208BF704793F073
:1010C0007F4F04BF41F40021704730B54FF4607486
:1010D00001F0004521F000411CE700BF50EA010289
:1010E00008BF704730B54FF000050AE050EA010232
:1010F00008BF704730B511F0004502D5404261EBA2
:1011000041014FF4806404F132045FEA915C3FF4E2
:10111000D8AE4FF003025FEADC0C18BF03325FEA7F
:10112000DC0C18BF033202EBDC02C2F1200300FA30
:1011300003FC20FA02F001FA03FE40EA0E0021FA55
:1011400002F11444BDE600BF70B54FF0FF0C4CF443
:10115000E06C1CEA11541DBF1CEA135594EA0C0FF5
:1011600095EA0C0F00F0DEF82C4481EA030621EA30
:101170004C5123EA4C5350EA013518BF52EA03356B
:1011800041F4801143F4801338D0A0FB02CE4FF01D
:101190000005E1FB02E506F00042E0FB03E54FF04D
:1011A0000006E1FB03569CF0000F18BF4EF0010E45
:1011B000A4F1FF04B6F5007F64F5407404D25FEA41
:1011C0004E0E6D4146EB060642EAC62141EA5551F4
:1011D0004FEAC52040EA5E504FEACE2EB4F1FD0C36
:1011E00088BFBCF5E06F1ED8BEF1004F08BF5FEAB4
:1011F000500E50F1000041EB045170BD06F0004666
:1012000046EA010140EA020081EA0301B4EB5C0412
:10121000C2BFD4EB0C0541EA045170BD41F480110A
:101220004FF0000E013C00F3AB8014F1360FDEBF2F
:10123000002001F0004170BDC4F10004203C35DA0B
:101240000C341BDC04F11404C4F1200500FA05F38E
:1012500020FA04F001FA05F240EA020001F000422F
:1012600021F0004110EBD37021FA04F642EB0601A5
:101270005EEA430E08BF20EAD37070BDC4F10C04CF
:10128000C4F1200500FA04F320FA05F001FA04F293
:1012900040EA020001F0004110EBD37041F100017F
:1012A0005EEA430E08BF20EAD37070BDC4F120058A
:1012B00000FA05F24EEA020E20FA04F301FA05F2F2
:1012C00043EA020321FA04F001F0004121FA04F29A
:1012D00020EA020000EBD3705EEA430E08BF20EA6A
:1012E000D37070BD94F0000F0FD101F000464000A4
:1012F00041EB010111F4801F08BF013CF7D041EA26
:10130000060195F0000F18BF704703F00046520029
:1013100043EB030313F4801F08BF013DF7D043EAFA
:101320000603704794EA0C0F0CEA135518BF95EAB0
:101330000C0F0CD050EA410618BF52EA4306D1D137
:1013400081EA030101F000414FF0000070BD50EA56
:10135000410606BF1046194652EA430619D094EAE0
:101360000C0F02D150EA013613D195EA0C0F05D1CA
:1013700052EA03361CBF104619460AD181EA03011E
:1013800001F0004141F0FE4141F470014FF00000D6
:1013900070BD41F0FE4141F4780170BD70B54FF071
:1013A000FF0C4CF4E06C1CEA11541DBF1CEA1355F1
:1013B00094EA0C0F95EA0C0F00F0A7F8A4EB0504D3
:1013C00081EA030E52EA03354FEA013100F08880CA
:1013D0004FEA03334FF0805545EA131343EA126393
:1013E0004FEA022245EA111545EA10654FEA002648
:1013F0000EF000419D4208BF964244F1FD0404F501
:10140000407402D25B084FEA3202B61A65EB03055C
:101410005B084FEA32024FF480104FF4002CB6EB19
:10142000020E75EB030E22BFB61A754640EA0C0099
:101430005B084FEA3202B6EB020E75EB030E22BFD9
:10144000B61A754640EA5C005B084FEA3202B6EB1A
:10145000020E75EB030E22BFB61A754640EA9C00D9
:101460005B084FEA3202B6EB020E75EB030E22BFA9
:10147000B61A754640EADC0055EA060E18D04FEA67
:10148000051545EA16754FEA06164FEAC30343EA07
:1014900052734FEAC2025FEA1C1CC0D111F4801FD4
:1014A0000BD141EA00014FF000004FF0004CB6E7CD
:1014B00011F4801F04BF01430020B4F1FD0C88BF6C
:1014C000BCF5E06F3FF6AFAEB5EB030C04BFB6EB77
:1014D000020C5FEA500C50F1000041EB045170BD6A
:1014E0000EF0004E4EEA113114EB5C04C2BFD4EB97
:1014F0000C0541EA045170BD41F480114FF0000E1B
:10150000013C90E645EA060E8DE60CEA135594EA96
:101510000C0F08BF95EA0C0F3FF43BAF94EA0C0F99
:101520000AD150EA01347FF434AF95EA0C0F7FF40E
:1015300025AF104619462CE795EA0C0F06D152EA62
:1015400003353FF4FDAE1046194622E750EA410646
:1015500018BF52EA43067FF4C5AE50EA41047FF457
:101560000DAF52EA43057FF4EBAE12E74FF0FF3CBC
:1015700006E000BF4FF0010C02E000BF4FF0010C8D
:101580004DF804CD4FEA410C7FEA6C5C4FEA430C06
:1015900018BF7FEA6C5C1BD001B050EA410C0CBF55
:1015A00052EA430C91EA030F02BF90EA020F0020B7
:1015B000704710F1000F91EA030F58BF994208BF1E
:1015C00090422CBFD8176FEAE37040F001007047DB
:1015D0004FEA410C7FEA6C5C02D150EA013C07D132
:1015E0004FEA430C7FEA6C5CD6D152EA033CD3D07D
:1015F0005DF8040B704700BF8446104662468C4677
:101600001946634600E000BF01B5FFF7B7FF0028A9
:1016100048BF10F1000F01BD4DF808EDFFF7F4FFD2
:101620000CBF012000205DF808FB00BF4DF808ED5D
:10163000FFF7EAFF34BF012000205DF808FB00BF80
:101640004DF808EDFFF7E0FF94BF012000205DF8A2
:1016500008FB00BF4DF808EDFFF7CEFF94BF012057
:1016600000205DF808FB00BF4DF808EDFFF7C4FF50
:1016700034BF012000205DF808FB00BF4FEA410C99
:101680007FEA6C5C02D150EA013C0AD14FEA430C7C
:101690007FEA6C5C02D152EA033C02D14FF00000B9
:1016A00070474FF0010070474FEA410212F50012F7
:1016B00015D211D56FF47873B3EB625212D94FEA99
:1016C000C12343F0004343EA505311F0004F23FA83
:1016D00002F018BF404270474FF00000704750EAD8
:1016E000013005D111F0004008BF6FF00040704795
:1016F0004FF00000704700BF4FEA4102B2F1E043F3
:1017000024BFB3F5001CDCF1FE5C0DD901F0004CE8
:101710004FEAC0024CEA5070B2F1004F40EB830038
:1017200008BF20F00100704711F0804F21D113F164
:101730003872BCBF01F00040704741F480114FEA9D
:101740005252C2F11802C2F1200C10FA0CF320FA26
:1017500002F018BF40F001004FEAC1234FEAD32343
:1017600003FA0CFC40EA0C0023FA02F34FEA4303AD
:10177000CCE77FEA625307D150EA01331EBF4FF036
:10178000FE4040F44000704701F0004040F0FE4051
:1017900040F40000704700BF80F0004002E000BF4E
:1017A00081F0004142001FBF5FEA410392EA030F4C
:1017B0007FEA226C7FEA236C6AD04FEA1262D2EB96
:1017C0001363C1BFD218414048404140B8BF5B429B
:1017D000192B88BF704710F0004F40F4000020F034
:1017E0007F4018BF404211F0004F41F4000121F04A
:1017F0007F4118BF494292EA030F3FD0A2F1010294
:1018000041FA03FC10EB0C00C3F1200301FA03F1D1
:1018100000F0004302D5494260EB4000B0F5000FF4
:1018200013D3B0F1807F06D340084FEA310102F1B3
:101830000102FE2A51D2B1F1004F40EBC25008BF65
:1018400020F0010040EA03007047490040EB00002F
:1018500010F4000FA2F10102EDD1B0FA80FCACF15E
:10186000080CB2EB0C0200FA0CF0AABF00EBC2505D
:1018700052421843BCBFD0401843704792F0000F4B
:1018800081F4000106BF80F400000132013BB5E79E
:101890004FEA41037FEA226C18BF7FEA236C21D014
:1018A00092EA030F04D092F0000F08BF0846704779
:1018B00090EA010F1CBF0020704712F07F4F04D147
:1018C000400028BF40F00040704712F100723CBF5A
:1018D00000F50000704700F0004343F0FE4040F484
:1018E000000070477FEA226216BF08467FEA236342
:1018F0000146420206BF5FEA412390EA010F40F42D
:10190000800070474FF0000304E000BF10F0004378
:1019100048BF40425FEA000C08BF704743F096435F
:1019200001464FF000001CE050EA010208BF70477A
:101930004FF000030AE000BF50EA010208BF704701
:1019400011F0004302D5404261EB41015FEA010C16
:1019500002BF84460146002043F0B64308BFA3F10E
:101960008053A3F50003BCFA8CF2083AA3EBC253F0
:1019700010DB01FA02FC634400FA02FCC2F120020F
:10198000BCF1004F20FA02F243EB020008BF20F046
:101990000100704702F1200201FA02FCC2F12002AC
:1019A00050EA4C0021FA02F243EB020008BF20EAA1
:1019B000DC70704707EE900AF5EEC07AF1EE10FA8F
:1019C00001D400F009B808B580F0004000F004F838
:1019D000404261EB410108BDD0B5FFF75DFB00223D
:1019E0000D4B06460F46FFF7AFFB00F019F8044613
:1019F000FFF730FB0022094BFFF7A6FB02460B4620
:101A000030463946FFF7E8F900F00AF8002223468D
:101A100010431946D0BD00BF0000F03D0000F0416A
:101A20004A0011D212F5001211D20DD56FF478735D
:101A3000B3EB62520ED44FEAC12343F0004343EAB2
:101A4000505323FA02F070474FF00000704750EAFD
:101A5000013002D14FF0FF3070474FF00000704767
:101A600000B583B001900091019B009ADA62019B5E
:101A700000221A62019B1B6804331B680198984777
:101A800003B05DF804FB00BF000000000000000090
:101A900000B583B001900091019BDB6A002B05D15A
:101AA00025490B2011F0B4FF002341E0009B002BDF
:101AB00005D122490B2011F0ABFF002338E0019B38
:101AC000DB6A93ED007A009BD3ED007AB4EE677A7F
:101AD000F1EE10FA2BD1019BDB6A93ED017A009BAA
:101AE000D3ED017AB4EE677AF1EE10FA1FD1019BC3
:101AF000DB6A93ED027A009BD3ED027AB4EE677A4B
:101B0000F1EE10FA13D1019BDB6AB3F90C20009BB4
:101B1000B3F90C309A420AD1019BDB6AB3F90E206B
:101B2000009BB3F90E309A4201D1012300E000235B
:101B3000184603B05DF804FB38AC06084CAC060848
:101B400010B586B003908DED020ACDED010A039B1E
:101B5000DB6AB3F90E301946052002F071FB03462B
:101B60001846FFF787FA10A3D3E90023FFF7ECFA32
:101B700003460C4618462146FFF7BEFD0346059373
:101B8000039B1B681B689DED051ADDED010A9DEDA9
:101B9000020A03989847F0EE407AB0EE670A06B062
:101BA00010BD00BFAFF30080FCA9F1D24D62503FE1
:101BB00000B52DED028B87B003908DED020ACDEDBF
:101BC000010A8DED001A9DED027ADDED017A37EE06
:101BD000677A039BD3ED067A67EE277ACDED057A17
:101BE000039B029ADA60039B019A1A61039BDB6AEA
:101BF000D3ED007A9DED057A67EE277ACDED047A74
:101C0000039B1B6810331B68039AD26A92ED017A1A
:101C1000DDED007A27EE277ADDED057A67EE277A8B
:101C2000B0EE670A03989847039BDB6AD3ED026A1C
:101C3000DDED007A86EEA77A039BD3ED077ADDED22
:101C4000056A76EEE77A67EE277A039BC3ED027AA0
:101C5000039B059ADA61039B93ED017ADDED047A2B
:101C600037EE277A039BD3ED027A37EE278A039B60
:101C70001B6808331B6803989847F0EE407A78EEAB
:101C8000277AB0EE670A07B0BDEC028B5DF804FB63
:101C900000B587B003908DED020ACDED010A8DED00
:101CA000001A9DED001ADDED010A9DED020A039870
:101CB000FFF77EFF8DED050A039BDB6AB3F9123057
:101CC00007EE903AF8EEE77A9DED057AB4EEE77A02
:101CD000F1EE10FA0ADD039BDB6AB3F9123007EE6E
:101CE000903AF8EEE77ACDED057A1BE0039B1B688E
:101CF0000C331B6803989847B0EE407ADDED057A07
:101D0000F4EEC77AF1EE10FA4CBF01230023DBB2E8
:101D1000002B07D0039B1B680C331B680398984764
:101D20008DED050A039B059A5A61059B07EE903AD3
:101D3000B0EE670A07B05DF804FB00BF00000000CA
:101D400000B585B003908DED020ACDED010A8DED51
:101D5000001A039BDB6A029A1A60039BDB6A019AF2
:101D60005A60039BDB6A009A9A60039B1B680433EA
:101D70001B680398984705B05DF804FB000000005D
:101D800082B00190019B4FF000025A60019B5A689B
:101D9000019B9A60019B4FF00002DA61019BDA69B6
:101DA000019BDA60019BDA68019B1A61019B1A6949
:101DB000019B5A61019B4FF07E529A61019B1B6A05
:101DC0005A1C019B1A6202B0704700BF000000005D
:101DD00082B00190019BDB6A1B6807EE903AB0EE7F
:101DE000670A02B0704700BF00000000000000005A
:101DF00082B00190019BDB6A5B6807EE903AB0EE1F
:101E0000670A02B0704700BF000000000000000039
:101E100082B00190019BDB6907EE903AB0EE670A51
:101E200002B0704700000000000000000000000049
:101E300082B00190019B5B6807EE903AB0EE670AB2
:101E400002B0704700000000000000000000000029
:101E500082B00190019BDB6A9B6807EE903AB0EE7E
:101E6000670A02B0704700BF0000000000000000D9
:101E700082B00190019BDB6AB3F90C3007EE903A17
:101E8000F8EEE77AB0EE670A02B070470000000093
:101E900082B00190019BDB6AB3F9103007EE903AF3
:101EA000F8EEE77AB0EE670A02B070470000000073
:101EB00082B001908DED000A019B009A9A6102B0F8
:101EC000704700BF0000000000000000000000009C
:101ED00000B583B00190009101220099019800F0B3
:101EE00007F803B05DF804FB0000000000000000EC
:101EF00000B585B0039002910192039B5A69029B41
:101F0000C3F80021039B5A68029BC3F8042103987D
:101F1000FFF77EFFF0EE407A029BC3ED427A039812
:101F2000FFF766FFF0EE407A029BC3ED437A039819
:101F3000FFF78EFFF0EE407A029BC3ED447A039BDD
:101F40009A68029BC3F81421039BDB6AB3F9123031
:101F500007EE903AF8EEE77A029BC3ED467A0398D3
:101F6000FFF736FFB0EE407A019B07EE903AF8EEAD
:101F7000E77A67EE277AFDEEE77A17EE902A029B62
:101F8000C3F81C21039B1B6808331B680398984700
:101F9000F0EE407AFDEEE77A17EE902A029BC3F846
:101FA0002021039B1A6A029BC3F82421039BDB6A4E
:101FB000B3F90E20029BA3F8282105B05DF804FBBD
:101FC0002DE9F04F8FB00D900C910B920D9B1B687B
:101FD00008331B680D98984710EE103A1846FFF723
:101FE0005BF804460D460D9BDB6A1B681846FFF73D
:101FF00053F806460F460D9BDB6A5B681846FFF7F1
:102000004BF8804689460D9BDB6A9B681846FFF7B4
:1020100043F802460B460D99C96AB1F90E100891B2
:10202000CDE90623CDE90489CDE90267CDE9004574
:102030000B9A1C490C9801F093F90D9B5B691846AB
:10204000FFF72AF804460D460D9B1B691846FFF75B
:1020500023F806460F460D9BDB681846FFF71CF871
:10206000804689460D9B5B681846FFF715F8824647
:102070008B460D9B9B681846FFF70EF802460B46F1
:10208000CDE90823CDE906ABCDE90489CDE90267A6
:10209000CDE900450B9A04490C9801F061F90FB0A5
:1020A000BDE8F08F60AC060898AC060800000000A0
:1020B00082B001908DED000A019B93ED017ADDED78
:1020C000007A77EE277A019BC3ED017A019B93EDAD
:1020D000017A019BDB6AB3F912301A46642303FBD1
:1020E00002F307EE903AF8EEE77AB4EEE77AF1EE13
:1020F00010FA0EDD019BDB6AB3F912301A46642335
:1021000003FB02F307EE903AF8EEE77A019BC3ED8A
:10211000017A019B93ED017A019BD3ED0A7AB4EE2B
:10212000E77AF1EE10FA03DD019B9A6A019B5A608F
:10213000019B93ED017A019BDB6AB3F912301A46D9
:102140006FF0630303FB02F307EE903AF8EEE77AD1
:10215000B4EEE77AF1EE10FA0FD5019BDB6AB3F922
:1021600012301A466FF0630303FB02F307EE903A56
:10217000F8EEE77A019BC3ED017A019B93ED017ABA
:10218000019BD3ED097AB4EEE77AF1EE10FA03D5AC
:10219000019B5A6A019B5A6002B070470000000020
:1021A00000B583B001900091019B0099184617F08B
:1021B00057FD084A019B1A60019B4FF000021A6309
:1021C000019B4FF000025A63019B184603B05DF873
:1021D00004FB00BFE4AC06080000000000000000A3
:1021E00000B58DB003908DED020ACDED010A8DEDA5
:1021F000001A9DED027ADDED017A37EE677A039BD6
:10220000D3ED067A67EE277ACDED097A039BDB6A78
:10221000D3ED007A9DED097A67EE277ACDED087A45
:10222000039B93ED017A039BDB6AD3ED016ADDED3D
:10223000007A66EEA76ADDED097A66EEA77A77EE98
:10224000277A039BC3ED017A039BD3ED0D7AF0EE61
:10225000E77A9FED4C7AF4EEC77AF1EE10FA2CDDB6
:10226000039BDB6AD3ED026A039BDB6A93ED007A82
:10227000C6EE877ACDED077A039BD3ED0D7ADDEDBF
:10228000006A86EEA77ADDED077A37EE277ADDED74
:10229000076AC6EE877ACDED0B7A039BDB6A93ED76
:1022A000007ADDED0B7A67EE276A039B93ED0D7ADA
:1022B000C6EE877ACDED0A7A0CE04FF000030B935F
:1022C000039BDB6AD3ED026A9DED007AC6EE877A46
:1022D000CDED0A7A039B93ED027ADDED0B7A27EEC2
:1022E000277A039BD3ED077ADDED096A76EEE76A7C
:1022F000DDED0A7A66EEA77A77EE277A039BC3EDC7
:10230000027A039B93ED017ADDED087A37EE277AA6
:10231000039BD3ED027A37EE277A039BDB6AB3F98E
:102320000C3007EE903AF8EEE77A77EE277ACDEDAB
:10233000067A9DED060A039800F02AF88DED050A4D
:10234000039B93ED017A039BD3ED0C6ADDED007ADC
:1023500066EEA76A9DED056ADDED067A76EE677A90
:1023600066EEA77A77EE277A039BC3ED017A039B8B
:10237000099ADA61059B07EE903AB0EE670A0DB054
:102380005DF804FB00008025000000000000000054
:1023900082B001908DED000A019BDB6AB3F9103029
:1023A00007EE903AF8EEE77A9DED007AB4EEE77A20
:1023B000F1EE10FA09D5019BDB6AB3F9103007EE94
:1023C000903AF8EEE77ACDED007A019BDB6AB3F93B
:1023D000123007EE903AF8EEE77A9DED007AB4EE0F
:1023E000E77AF1EE10FA09DD019BDB6AB3F91230EE
:1023F00007EE903AF8EEE77ACDED007A009B07EE13
:10240000903AB0EE670A02B0704700BF00000000CB
:10241000014B5B6818467047001000E000000000A8
:1024200082B08DED010A9DED017ADDED017AB4EE09
:10243000677AF1EE10FA01D7012300E00023184675
:1024400002B0704700000000000000000000000023
:1024500000B58DB01023049300230B9300230A933F
:1024600000230993099B102B63DCFFF7D1FF039036
:102470000023089300230793079B42F20F729342B5
:1024800012DC099B07EE903AF8EEE77AB0EE670AA5
:102490001021304800F064FA0246089B1344089368
:1024A000079B01330793E7E7FFF7B2FF0246039B61
:1024B000D31A0293FFF7ACFF019000230693002389
:1024C0000593059B42F20F72934212DC099B07EEC3
:1024D000903AF8EEE77AB0EE670A10211D4800F056
:1024E000D7F90246069B13440693059B01330593D7
:1024F000E7E7FFF78DFF0246019BD31A0093164BC7
:102500001868029B099A154900F02AFF124B1868B7
:10251000009B099A124900F023FF0B9A029B134477
:102520000B930A9A009B13440A93099B0133099366
:1025300098E7094B1B680B9A0A49184600F010FFF0
:10254000054B1B680A9A0849184600F009FF0DB0B0
:102550005DF804FB6C1B00205CAA012014AD06088A
:102560002CAD060844AD060858AD06080000000072
:1025700000B583B00190F7EE001AB7EE001ADFED58
:10258000060A9FED050A019800F02AF8019B1846FB
:1025900003B05DF804FB00BF000000000000000075
:1025A00000B587B005908DED040ACDED030A8DEDE1
:1025B000021ACDED011ADDED011A9DED021ADDEDD5
:1025C000030A9DED040A059800F00AF8059B1846D9
:1025D00007B05DF804FB00BF000000000000000031
:1025E00070B588B007908DED060ACDED050A8DED2A
:1025F000041ACDED031A9DED067ADDED047AB4EEF2
:10260000677AF1EE10FA13D10698FEF745FD0546FC
:102610000E460498FEF740FD03460C46CDE9003413
:102620002A463346134941F2DE7011F0F1F91EE0FB
:102630009DED057ADDED037A77EE676A9DED067A0A
:10264000DDED047A37EE677AC6EE877A079BC3ED35
:10265000007A079B93ED007ADDED067A67EE277A24
:102660009DED057A77EE677A079BC3ED017A08B096
:1026700070BD00BF6CAD0608000000000000000047
:1026800082B001908DED000A019B93ED007ADDEDA3
:10269000007A27EE277A019BD3ED017A77EE277A2D
:1026A000B0EE670A02B070470000000000000000B2
:1026B00030B58FB009908DED080ACDED070A8DED8C
:1026C000061ACDED051A8DED042A08AB1B68424AA7
:1026D00093420ED006AB1B683F4A934209D007AB2A
:1026E0001B683D4A934204D005AB1B683A4A9342AB
:1026F00007D1099A394941F27C7011F001F9364B42
:1027000063E004AB1B68344A934207D1099A344909
:1027100041F27C7011F0F4F82F4B56E09DED087AF1
:10272000DDED067AB4EE677AF1EE10FA17D1089B68
:102730001846FEF7B1FC04460D46069B1846FEF708
:10274000ABFC02460B46CDE90223CDE90045099AD0
:10275000244941F27C7011F0D3F81F4B35E09DED18
:10276000077ADDED057A77EE676A9DED087ADDED93
:10277000067A37EE677AC6EE877ACDED0B7A0BAB29
:102780001B68154A934207D1099A174941F27C7098
:1027900011F0B6F8104B18E09DED077ADDED0B6AED
:1027A000DDED087A66EEA77A77EE677ACDED0D7AE1
:1027B0009DED0B7ADDED047A67EE277A9DED0D7ABB
:1027C00077EE277ACDED0C7A0C9B07EE903AB0EEBF
:1027D000670A0FB030BD00BF0000C07F9CAD060887
:1027E000B8AD0608D0AD060808AE06080000000027
:1027F00088B08DED050ACDED040A8DED031ACDEDFF
:10280000021A8DED012A9DED017ADDED057AB4EE17
:10281000E77AF1EE10FA02D8DDED047A31E09DEDB1
:10282000017ADDED037AB4EEE77AF1EE10FA02DB1D
:10283000DDED027A25E09DED047ADDED027A77EE9A
:10284000676A9DED057ADDED037A37EE677AC6EEAD
:10285000877ACDED077A9DED077ADDED057A67EE93
:10286000277A9DED047A77EE677ACDED067A9DEDB5
:10287000077ADDED017A27EE277ADDED067A77EE2D
:10288000277AB0EE670A08B0704700BF000000006A
:1028900000B589B0039002918DED010A01AB1B6870
:1028A0002A4A934206D12A4941F6641011F0B0F841
:1028B000002346E0029B012B06D8264941F664100E
:1028C00011F0A6F800233CE000230793029B5B086D
:1028D0000693069B5B00029A9A4207D01E4941F676
:1028E000641011F095F84FF0FF332AE0069B002B9F
:1028F00016D0079B069A13430593059B9B00039AEA
:10290000134493ED007ADDED017AB4EEE77AF1EE4F
:1029100010FA01D8059B0793069B5B080693E5E731
:10292000079B002B09D1039B93ED007ADDED017A23
:10293000B4EEE77AF1EE10FA01D8079B01E04FF010
:10294000FF33184609B05DF804FB00BF0000C07FEC
:1029500020AE060834AE060848AE060800000000A7
:1029600000B585B0039002918DED010A9DED010A3D
:10297000029A0399034839F05BFA0346184605B0FA
:102980005DF804FB68B106080000000000000000CC
:1029900000B589B005908DED040A03910292019370
:1029A0009DED040AFFF73CFD0346002B08D0059A75
:1029B0002A4941F2A77011F02BF8DFED297A47E0A0
:1029C0009DED040A019A0399264839F031FA0790DF
:1029D000079BB3F1FF3F03D1029BD3ED007A37E0B1
:1029E000019B013B079A9A4209D1019B03F1804365
:1029F000013B9B00029A1344D3ED007A28E0079B29
:102A00009B00039A1344D3ED007A079B9B00029A24
:102A1000134493ED007A079B01339B00039A134400
:102A2000D3ED006A079B01339B00029A134493ED98
:102A3000006A9DED042AF0EE461AB0EE661AF0EE3A
:102A4000470AB0EE670A0848FFF732FEF0EE407A18
:102A5000B0EE670A09B05DF804FB00BF5CAE060883
:102A60000000C07F74AE06087CAE060800000000BF
:102A700000B589B00590049103928DED020ACDED69
:102A8000010A9DED020A039A0599094839F0D0F927
:102A90000790079BB3F1FF3F01D100230793079BEA
:102AA0009B00049A1344019A1A6009B05DF804FB74
:102AB00080AE0608000000000000000000000000DA
:102AC00000B583B00190054A019B13600449054895
:102AD00000F026FD03B05DF804FB00BF5CAA0120F6
:102AE0005124000888AE0608000000000000000025
:102AF000014B9B6918467047F82700200000000032
:102B000000B58BB003900291029B002B05D12A499E
:102B100041F6CA1010F07CFF4AE0029801F0D0FBA9
:102B20000990039B0793029B0693099B0593079BC0
:102B3000DB6A002B09D1079B1B681A461F4941F627
:102B4000811010F065FF012320E0079800F0C8FA1B
:102B50000246059B01339A4234BF01230023DBB2B6
:102B6000002B12D0059B322B01D8069B00E0144BA2
:102B70000493079B1A68049B0093059B114941F23B
:102B80009C7010F0BDFE012300E000238DF823307F
:102B90009DF82330002B0BD1039B1B6B0299184629
:102BA00059F03CFD039B1A6B099B1A44039B1A6363
:102BB0000BB05DF804FB00BF94AE0608A0AE06089B
:102BC000BCAE0608C4AE060800000000000000000D
:102BD00000B583B00190009100990198FFF790FF34
:102BE00003B05DF804FB00BF00000000000000001F
:102BF00010B483B001900091019B1C6B009B5A1C88
:102C000000921A7823465C1C1A701B78002B14BFA4
:102C100001230023DBB2002BF0D1621E019B1A635B
:102C200003B05DF8044B7047000000000000000096
:102C300000B585B00390029101921C4B1B7883F084
:102C40000103DBB2002B05D0194941F6841010F0C6
:102C5000DFFE28E0174B0022DA60FFF749FF03464A
:102C600018461AF015F80346802BD4BF0123002321
:102C7000DBB2002B05D0104941F6CB1010F0C8FE96
:102C800011E0019A02990B484CF0DAFA094B5A68A4
:102C9000084BDB68134400221A70064B5B68194628
:102CA0000398FFF72DFF05B05DF804FB74AA01201F
:102CB000E0AE060860AA01200CAF06080000000084
:102CC00000B587B0039002910192FFF711FF034610
:102CD000184619F0DDFF0346802BD4BF01230023E3
:102CE000DBB2002B05D00B4941F6CC1010F090FE62
:102CF0000DE04CF07DFE03460593019A029903987E
:102D0000FFF796FF059B002B01D14CF091FE07B019
:102D10005DF804FB18AF060800000000000000008A
:102D20000EB400B584B00190FFF7E2FE03461846EA
:102D300019F0AEFF0346802BD4BF01230023DBB282
:102D4000002B05D0084941F6CF1010F061FE06E0D7
:102D500006AB0393039A05990198FFF7B1FF04B0FE
:102D60005DF804EB03B0704724AF060800000000D4
:102D70000EB400B584B00190FFF7BAFE03461846C2
:102D800019F086FF0346802BD4BF01230023DBB25A
:102D9000002B05D0084941F6CF1010F039FE06E0AF
:102DA00006AB0393039A05990198FFF789FF04B0D6
:102DB0005DF804EB03B0704724AF06080000000084
:102DC00000B585B00390029101920093039B029A93
:102DD0001A60039B019ADA62039B009A5A63039874
:102DE00000F026F9039B012283F8382005B05DF836
:102DF00004FB00BF00000000000000000000000015
:102E000010B584B003908DED020A0191019B013B46
:102E1000052B57D801A252F823F000BF352E000829
:102E20004D2E0008652E00087D2E0008952E000806
:102E3000AD2E00080298FEF72FF903460C461A46FD
:102E4000234627490398FFF76BFF46E00298FEF7F9
:102E500023F903460C461A46234622490398FFF7F6
:102E60005FFF3AE00298FEF717F903460C461A4650
:102E700023461D490398FFF753FF2EE00298FEF703
:102E80000BF903460C461A46234618490398FFF7E8
:102E900047FF22E00298FEF7FFF803460C461A4669
:102EA000234613490398FFF73BFF16E00298FEF70D
:102EB000F3F803460C461A4623460E490398FFF7DB
:102EC0002FFF0AE00298FEF7E7F803460C461A4681
:102ED000234604490398FFF723FF04B010BD00BF49
:102EE0003CAF06088C02070844AF06084CAF060842
:102EF00078D0060854AF060800000000000000006B
:102F000000B585B0039002918DED010A00920299FF
:102F10000398FFF75DFE08490398FFF759FE0099F3
:102F20009DED010A0398FFF76BFF03490398FFF734
:102F30004FFE05B05DF804FB30AF0608000000004E
:102F400000B585B001901FF0C3FF034683F0010375
:102F5000DBB2002B3ED1019801F0B2F90346039396
:102F600006221E491E48FDF779FC1D4801F0A8F90C
:102F700002461B4B134402930399029801F0E0FAB6
:102F80000290029B5A1C02923A221A70029B5A1C0F
:102F9000029200221A70019B0293039B029A13442F
:102FA0000293029B5A1C02920D221A70029B5A1C19
:102FB00002920A221A700A48FDF7E2FB03461946FC
:102FC00007481FF0ADFF029A019BD31A19460198DA
:102FD0001FF0A6FF05B05DF804FB00BF5CAF06085C
:102FE00078AA01200000000000000000000000009E
:102FF00000B583B0019003490198FFF7E9FD03B0E4
:103000005DF804FB64AF060800000000000000004B
:1030100000B583B0019003490198FFF7D9FD03B0D3
:103020005DF804FB30AF060800000000000000005F
:1030300000B585B00190019BDB6A0393039B002BD5
:1030400008D1019B1B681A46074941F6831010F00E
:10305000DFFC06E0019B039A1A63019B1B6B0022B5
:103060001A7005B05DF804FB6CAF060800000000A4
:103070000EB400B584B00190FFF73AFD0346184640
:1030800019F006FE0346802BD4BF01230023DBB2D8
:10309000002B05D0104941F6CD1010F0B9FC15E019
:1030A0000198FFF7A5FF06AB0393039A05990198D2
:1030B000FFF706FE09490198FFF78AFD019BDB6ACD
:1030C0001846FFF73DFF0198FFF7B2FF04B05DF827
:1030D00004EB03B0704700BF7CAF060830AF0608B2
:1030E00082B00190019B5A6B019B1B6B1946019B9F
:1030F000DB6ACB1AD31A184602B0704700000000F2
:1031000008B500F00DF900234FF4FA6203490448B2
:103110004BF0C6FF034B01221A7008BDD0D300103C
:1031200060AA012074AA0120000000000000000035
:1031300082B00190019B00221A60019B0022DA629A
:10314000019B00221A63019B00225A63019B00220B
:1031500083F83820019B184602B070470000000039
:1031600000B585B003900291019200930398FFF798
:10317000DFFF009B019A02990398FFF721FE039B52
:10318000184605B05DF804FB0000000000000000D8
:1031900000B583B0019000910198019B03F13902C1
:1031A000C8230099FFF7DCFF019B184603B05DF8C8
:1031B00004FB00BF00000000000000000000000051
:1031C00000B585B00190019BDB6A184601F078F8E4
:1031D000034603934CF00CFC03468DF80B301B4B5D
:1031E0001A68039B134441F65E1293420CD99DF872
:1031F0000B3083F00103DBB2002B01D04CF018FC44
:103200000198FFF715FF1DE0114B1A680F4B1B6863
:10321000D018019BD96A039B01331A46FDF71EFBA8
:103220000A4B1A68039B1344084A13609DF80B303D
:1032300083F00103DBB2002B01D04CF0F9FB0198C5
:10324000FFF7F6FE05B05DF804FB00BF54DD01207A
:1032500088AA01200000000000000000000000001B
:1032600000B58BB003904CF0C3FB03468DF82730BC
:10327000264B1B680893264B1B680793254B1B683E
:10328000224A1360234A089B1360214B00221A60D4
:10329000204B1B6800221A709DF8273083F0010331
:1032A000DBB2002B01D04CF0C3FB184B1B68184657
:1032B00001F006F803461A46039B1A60039B1B683D
:1032C000079A9A421BD0039B1B6819460A2000F0FC
:1032D0004FFF0690039B1A68069BD31A0593039B26
:1032E00019680A4B1A68059B13440093079B0A460A
:1032F000094941F6861010F08BFB002301E0034BD7
:103300001B6818460BB05DF804FB00BF58DD0120B8
:1033100054DD012088AA012088AF060800000000C3
:10332000074B00221A70074B00221A70064B044A02
:103330001A60064B034A1A60054B00221A60704758
:103340008CAA0120F0C3012088AA012058DD0120A9
:1033500054DD01200000000000000000000000001B
:103360000EB400B586B00190002305930798FDF7D1
:1033700007FA0246059B93420ED2079A059B134417
:103380001B780A2B04D119490B2010F041FB28E0CF
:10339000059B01330593E9E7019B002B05D11449F7
:1033A00041F6891010F0ACFA1BE04CF021FB03460B
:1033B00004930198FFF73CFE0198FFF719FE08AB54
:1033C0000393039A07990198FFF77AFC0198FFF796
:1033D0001FFE0198FFF7F4FE049B002B01D14CF077
:1033E00027FB06B05DF804EB03B07047A4AF0608F6
:1033F000B4AF06080000000000000000000000005C
:1034000010B588B00390019200930B468DF80B30F5
:1034100000230793039800F053FF0246079B934253
:1034200034BF01230023DBB2002B1ED0039A079B7D
:1034300013441B788DF813309DF813409DF813301A
:10344000184601F015FA03469C4214BF01230023DD
:10345000DBB2002B05D0039A234941F2FC7010F037
:10346000D7FA079B01330793D4E7002306931F4B3A
:103470001B68069A9A4215DA1D4A069B1B011344E3
:103480001B6819460398FCF7FFFF0346002B05D184
:10349000039A184941F61B2010F0BAFA069B013333
:1034A0000693E4E7114B1B68B32B05DD124941F687
:1034B000C91010F0ADFA15E00C4B1B685A1C0B49F3
:1034C0000A601B010A4A13440593059B039A1A607C
:1034D000059B9DF80B201A71059B019A9A60059B2C
:1034E000009ADA6008B010BDC4AF060860DD0120A4
:1034F000A0DB0010DCAF0608F4AF060800000000F7
:1035000000B585B0039002910192019B029A0121BE
:103510000398FFF775FF05B05DF804FB000000009D
:1035200000B583B0019000910023009A002101981A
:10353000FFF766FF03B05DF804FB00BF000000006A
:1035400000B583B0019000910023009A02210198F8
:10355000FFF756FF03B05DF804FB00BF000000005A
:1035600000B583B0019000910023009A0D210198CD
:10357000FFF746FF03B05DF804FB00BF000000004A
:1035800000B583B0019000910023009A11210198A9
:10359000FFF736FF03B05DF804FB00BF000000003A
:1035A00000B583B0019000910023009A0721019893
:1035B000FFF726FF03B05DF804FB00BF000000002A
:1035C00000B583B0019000910023009A0921019871
:1035D000FFF716FF03B05DF804FB00BF000000001A
:1035E00000B583B0019000910023009A0B2101984F
:1035F000FFF706FF03B05DF804FB00BF000000000A
:1036000000B583B0019000910023009A0C2101982D
:10361000FFF7F6FE03B05DF804FB00BF00000000FA
:1036200000B583B0019000910023009A0421019815
:10363000FFF7E6FE03B05DF804FB00BF00000000EA
:1036400000B583B0019000910023009A05210198F4
:10365000FFF7D6FE03B05DF804FB00BF00000000DA
:1036600000B583B0019000910023009A0F210198CA
:10367000FFF7C6FE03B05DF804FB00BF00000000CA
:1036800082B003468DF807309DF80730112B31D8F2
:1036900001A252F823F000BFE1360008E13600082D
:1036A000E5360008E5360008F5360008E53600087E
:1036B000F5360008E5360008F5360008E93600085A
:1036C000E9360008ED360008F1360008E936000852
:1036D000E9360008E9360008E9360008E93600084E
:1036E000002309E0012307E0022305E0032303E0B0
:1036F000052301E04FF0FF33184602B0704700BFCA
:1037000030B583B0174B1868174B1B681A4617491A
:10371000FFF726FE00230193134B1B68019A9A4280
:1037200017DA019B1B01124A134400930D4B1C68CE
:10373000009B1D68009B1B791846FFF7A1FF0346FD
:103740002A460C492046FFF70BFE019B01330193EB
:10375000E2E7044B1B6808491846FFF701FE03B077
:1037600030BD00BF5CDD012060DD012010B0060827
:10377000A0DB001028B006083CB0060800000000DE
:1037800000B583B00190019902481FF061FD03B0BC
:103790005DF804FB98B0060800000000000000007F
:1037A00000B585B00190019B1B78222B14D10198A4
:1037B000FCF7E6FF03460393039B013B019A134486
:1037C0001B78222B08D1039B013B019A1344002252
:1037D0001A70019B013300E0019B184605B05DF8AB
:1037E00004FB00BF0000000000000000000000001B
:1037F00000B585B00190019B1B78222B10D1019B55
:1038000001332221184600F0A3FD0390039BB3F17E
:10381000FF3F02D14FF0FF3307E0039B023304E088
:103820002021019800F094FD0346184605B05DF88C
:1038300004FB00BF000000000000000000000000CA
:1038400010B5ACB003900291029B1B78202B06D1DF
:10385000029B00221A70029B01330293F4E7039B40
:103860001B79072B02D0082B07D010E0039B9B6825
:103870002493249B02989847DEE2039B9B68259340
:10388000039BDA68259B114602989847D4E2039B74
:103890001B79092B03D0039B1B790A2B3CD102987F
:1038A000FFF7A6FF2B902B9BB3F1FF3F00F0C482E4
:1038B0002B9B0133029A13441B78202B08D12B9B9E
:1038C0005A1C2B921A46029B134400221A70EFE7EF
:1038D0002B9B029A134400221A70029B0C932B9B81
:1038E0000133029A13440293029B0B93039B1B79AF
:1038F000092B07D1039B9B680993099B0B990C9893
:10390000984799E2039B9B680A93039BDA680A9B9A
:103910000B990C9898478FE2039B1B790B2B54D182
:103920000298FFF765FF2A902A9BB3F1FF3F00F052
:1039300083822A9B0133029A13441B78202B08D1DF
:103940002A9B5A1C2A921A46029B134400221A7080
:10395000EFE72A9B029A134400221A70029B1093ED
:103960002A9B0133029A134402930298FFF740FF07
:103970002A902A9BB3F1FF3F00F05E822A9B01331D
:10398000029A13441B78202B08D12A9B5A1C2A9296
:103990001A46029B134400221A70EFE72A9B029AF0
:1039A000134400221A70029B0F932A9B0133029A40
:1039B00013440293029B0E93039B9B680D930D9BF4
:1039C0000E9A0F991098984736E2039B1B790C2B9F
:1039D00040F0A2800298FFF70BFF2990299BB3F1DA
:1039E000FF3F00F02982299B0133029A13441B7880
:1039F000202B08D1299B5A1C29921A46029B13445A
:103A000000221A70EFE7299B029A134400221A70D1
:103A1000029B1693299B0133029A13440293029846
:103A2000FFF7E6FE2990299BB3F1FF3F00F00482E7
:103A3000299B0133029A13441B78202B08D1299B20
:103A40005A1C29921A46029B134400221A70EFE76F
:103A5000299B029A134400221A70029B1593299BFA
:103A60000133029A134402930298FFF7C1FE299092
:103A7000299BB3F1FF3F00F0DF81299B0133029ABC
:103A800013441B78202B08D1299B5A1C29921A46D3
:103A9000029B134400221A70EFE7299B029A1344F9
:103AA00000221A70029B1493299B0133029A13443B
:103AB00002930298FFF79CFE2990299BB3F1FF3FE8
:103AC00000F0BA81299B0133029A13441B78202B02
:103AD00008D1299B5A1C29921A46029B13440022A2
:103AE0001A70EFE7299B029A134400221A70029B76
:103AF0001393299B0133029A13440293029B12935E
:103B0000039B9B681193129B0093119C139B149A27
:103B100015991698A0478FE1039B1B790D2B5AD15D
:103B20000298FFF765FE2890289BB3F1FF3F00F055
:103B30008381289B0133029A13441B78202B08D1E0
:103B4000289B5A1C28921A46029B134400221A7082
:103B5000EFE7289B029A134400221A70029800F0A3
:103B60001FFC1990199800F05BFB0246A24B9A4289
:103B70000CBF01230023DBB2002B07D09F4B1B6837
:103B8000029A9F491846FFF7EBFB55E1289B01334A
:103B9000029A13440293029800F002FC18901898BD
:103BA00000F03EFB0246944B9A420CBF01230023D7
:103BB000DBB2002B07D0914B1B68029A9049184644
:103BC000FFF7CEFB38E1039B9B681793179B18996F
:103BD0001998984730E1039B1B79042B0CD102986C
:103BE00000F036FD8DED1B0A039B9B681A931A9B10
:103BF0009DED1B0A98471FE1039B1B79052B1AD1EA
:103C0000029800F025FDF0EE407ACDED057A05AB87
:103C10001B687C4A934204D102997B481FF018FB31
:103C20000AE1039B9B681C93DDED057A1C9BB0EEBB
:103C3000670A984700E1039B1B790F2B03D0039B76
:103C40001B79102B67D10298FFF7D2FD2790279B95
:103C5000B3F1FF3F00F0F080279B0133029A134439
:103C60001B78202B08D1279B5A1C27921A46029BAF
:103C7000134400221A70EFE7279B029A1344002294
:103C80001A70029800F0E4FCF0EE407ACDED077A6D
:103C900007AB1B685B4A934204D102995A481FF054
:103CA000D7FAC9E0279B0133029A13440293029882
:103CB00000F0CEFCF0EE407ACDED067A06AB1B6844
:103CC000504A934204D102994F481FF0C1FAB3E021
:103CD000039B1B790F2B0DD1039B9B681D93DDED7F
:103CE000077A9DED067A1D9BF0EE470AB0EE670A53
:103CF0009847A1E0039B9B681E93DDED077A9DED3D
:103D0000067A039BDA681E9B1046F0EE470AB0EE77
:103D1000670A984790E0039B1B79112B56D10298B4
:103D2000FFF766FD2690269BB3F1FF3F00F08480ED
:103D3000269B0133029A13441B78202B08D1269B23
:103D40005A1C26921A46029B134400221A70EFE76F
:103D5000269B029A134400221A70029800F020FB5E
:103D60002090209800F05CFA0246234B9A420CBF48
:103D700001230023DBB2002B07D0204B1B68029AE3
:103D80001F491846FFF7ECFA56E0269B0133029ACA
:103D900013440293029800F05BFCF0EE407ACDED04
:103DA000087A08AB1B68174A934204D10299164857
:103DB0001FF04EFA40E0039B9B681F93DDED087AED
:103DC0001F9BB0EE670A2098984735E0029800F0F4
:103DD000E7FA2390239800F023FA0246064B9A4212
:103DE0000CBF01230023DBB2002B11D0029907483E
:103DF0001FF02EFA20E000BF30E48C125CDD0120C1
:103E0000A8B006080000C07FBCB00608D4B0060801
:103E1000039B1B79032B09D1039B9B682193039B75
:103E2000DA68219B11462398984705E0039B9B681D
:103E30002293229B239898472CB010BD00000000CD
:103E400084B0019000230393019B1B78002B0DD0BD
:103E5000019B5A1C01921B788DF80B309DF80B309A
:103E6000202B03D0039B01330393EDE7039B1846FC
:103E700004B07047000000000000000000000000D7
:103E800000B583B00190074A019B136006490748BB
:103E9000FFF746FB06490748FFF752FB03B05DF802
:103EA00004FB00BF5CDD012001370008ECB0060810
:103EB00081370008F4B00608000000000000000090
:103EC00000B587B00190019B002B01D100233BE09E
:103ED000042201991E4858F0FFFB0346002B32D103
:103EE000019B04330193019B0593059B1B78212BB8
:103EF0000DD0059B1B78002B05D1019915481FF0AB
:103F0000A7F9002320E0059B01330593EDE7059B0E
:103F10005A1C059200221A70019800F041FA049090
:103F2000059B01930198FCF72BFC03460393049A2D
:103F3000039B9A4207D0019B039A049906481FF0FD
:103F400087F9002300E0019B184607B05DF804FBE9
:103F5000FCB0060804B1060820B106080000000005
:103F600000B58BB001900091C722019936485AF0F4
:103F700077F8354B002283F8C720334B0793079817
:103F8000FFF75EFF0690069A009B9A422ED100230F
:103F900009932E4B1B68099A9A4250DA099B1B0120
:103FA0002B4A13440393039B1B681946079800F0A0
:103FB00077FC0346002B15D0039B1B79002B03D104
:103FC000039B9B6898470BE0039B1B79012B07D150
:103FD000039B9B680293039BDA68029B10469847F9
:103FE00001232DE0099B01330993D2E7069B079A31
:103FF00013440593059B00221A70059B013305931A
:1040000000230893114B1B68089A9A4217DA089B01
:104010001B010F4A13440493049B1B68194607981D
:1040200000F03EFC0346002B05D005990498FFF7ED
:1040300007FC012304E0089B01330893E2E7002317
:1040400018460BB05DF804FB2CDE012060DD01207A
:10405000A0DB0010000000000000000000000000D5
:1040600000B583B001900091044B1868009B019A41
:104070000349FFF775F903B05DF804FB5CDD01202F
:1040800054B106080000000000000000000000001D
:1040900000B585B001900198FFF712FF0190019BD8
:1040A000002B3AD00198FCF76BFB03460393039B6C
:1040B000642B03DD1A481FF0CBF82EE00E221949BD
:1040C0001948FCF7CBFB0199174859F0A9FF16488E
:1040D000FCF756FB0246144B1344022213491846C0
:1040E000FCF7BCFB03991048FFF7BAFF039901984E
:1040F000FFF736FF03468DF80B309DF80B3083F049
:104100000103DBB2002B08D0094B1B68019A094957
:104110001846FFF725F9FFF7F3FA05B05DF804FB41
:104120005CB106086CB1060864DD012060AF0608CA
:104130005CDD01207CB106080000000000000000EA
:1041400082B003468DF807309DF80730002B01D070
:10415000024B00E0024B184602B070478CB10608D3
:1041600090B1060800000000000000000000000000
:1041700082B001900091019A009B9A4201DA019B62
:1041800000E0009B184602B0704700BF000000002E
:1041900000B585B08DED010ACDED000ADDED007AA8
:1041A000F5EE407AF1EE10FA07D10F4941F66410AE
:1041B0000FF02EFCDFED0D7A11E09DED017ADDEDC3
:1041C000007AC7EE276AB0EE660A5CF0A3FD8DEDBB
:1041D000030A9DED037ADDED007A67EE277AB0EEF3
:1041E000670A05B05DF804FB94B106080000C07FC3
:1041F00082B08DED010ADDED017AF5EEC07AF1EEC7
:1042000010FA02DDDDED017A03E0DDED017AF1EE79
:10421000677AB0EE670A02B0704700BF0000000086
:1042200082B00190019B002BB8BF5B42184602B0E0
:10423000704700BF00000000000000000000000008
:1042400082B001900091019A009B9A4201DD019B8E
:1042500000E0009B184602B0704700BF000000005D
:1042600082B08DED010ACDED000A9DED017ADDED04
:10427000007AB4EEE77AF1EE10FA01DD019B00E07E
:10428000009B07EE903AB0EE670A02B0704700BF9D
:1042900082B08DED010ACDED000A9DED017ADDEDD4
:1042A000007AB4EEE77AF1EE10FA01D5019B00E056
:1042B000009B07EE903AB0EE670A02B0704700BF6D
:1042C00010B483B00190019C2378002B01D00134FD
:1042D000FAE72246019BD31A184603B05DF8044B57
:1042E000704700BF00000000000000000000000058
:1042F00000B585B00190019B1B78202B03D1019B59
:1043000001330193F7E70198FFF7DAFF03460393C0
:10431000039B002B10DD039B013B019A13441B7888
:10432000202B09D1039B013B019A134400221A70F0
:10433000039B013B0393EBE7019B184605B05DF837
:1043400004FB00BF000000000000000000000000AF
:1043500000B585B001900B468DF803300198FFF74A
:10436000AFFF0346029300230393039A029B9A42F2
:104370000DDA039B019A13441B789DF803209A429F
:1043800001D1039B05E0039B01330393EDE74FF05D
:10439000FF33184605B05DF804FB00BF00000000C5
:1043A00000B589B001900198FCF7EAF9034605933E
:1043B000059B002B01D11E4B35E0019B1B782D2B5B
:1043C00007D1019B01331846FFF7EAFF03465B4222
:1043D00029E00023079300230693069A059B9A423F
:1043E00020DA069B019A13441B788DF813309DF850
:1043F00013302F2B03D99DF81330392B01D90D4BD6
:1044000011E09DF81330303B0393079A13469B004D
:1044100013445B001A46039B13440793069B013326
:104420000693DAE7079B184609B05DF804FB00BF66
:10443000D01B73ED30E48C1200000000000000007F
:104440008AB00390029101920A23089309230993E9
:10445000029B019AB3FBF2F2019901FB02F29B1A53
:104460000793079B092B04D8079BDBB23033DBB2E1
:1044700003E0079BDBB25733DBB28DF81B3004AA95
:10448000099B13449DF81B201A70099B013B09935B
:10449000029A019BB2FBF3F30293029B002B14BF21
:1044A00001230023DBB2002BD2D1099B01330993F6
:1044B000099B092B0CD8099B5A1C09920AAA134480
:1044C00013F8181C039B5A1C03920A461A70EFE754
:1044D000039B18460AB0704700000000000000006F
:1044E00000B587B0039002910192029B002B11DA74
:1044F000039B5A1C03922D221A70029B5B42019A65
:1045000019460398FFF79CFF0490049B00221A7041
:10451000049B0AE0029B019A19460398FFF790FF5B
:104520000590059B00221A70059B184607B05DF8A0
:1045300004FB00BF000000000000000000000000BD
:1045400000B583B0019000910A2200990198FFF70D
:10455000C7FF0346184603B05DF804FB00000000E7
:1045600010B582B08DED010ACDED000A9DED017A06
:10457000DDED007A77EE677AB0EE670AFFF738FE76
:1045800010EE103A1846FCF787FD01231C4608A3DD
:10459000D3E90023FDF74AF80346002B01D100239D
:1045A0001C46E3B2184602B010BD00BFAFF3008056
:1045B0002D431CEBE2361A3F000000000000000013
:1045C00000B583B00190019B082B29D801A252F8B5
:1045D00023F000BFF9450008FD450008014600082A
:1045E000054600080B46000811460008154600085D
:1045F000194600081D460008012319E00A2317E0A8
:10460000642315E04FF47A7312E042F210730FE066
:10461000094B0DE0094B0BE0094B09E0094B07E0A2
:104620000920FFF7CDFF024613469B0013445B00B1
:10463000184603B05DF804FBA086010040420F005D
:104640008096980000E1F5050000000000000000E1
:1046500000B58DB001900198FCF792F80990099B84
:10466000632B02D9DFED527A9DE00199514857F052
:10467000D5FF504B08936E210898FFF769FE03465B
:10468000B3F1FF3F07D14E210898FFF761FE0346C3
:10469000B3F1FF3F01D0012300E00023002B06D03F
:1046A000089945481EF0D4FDDFED417A7BE02E21CC
:1046B0000898FFF74DFE0790079BB3F1FF3F18D115
:1046C0000898FFF76DFE03900398FFF7A9FD0246D7
:1046D0003A4B9A420CBF01230023DBB2002B02D0DD
:1046E000DFED337A5FE0039B07EE903AF8EEE77A6E
:1046F00059E0079B089A134400221A700898FFF7A4
:104700004FFE06900698FFF78BFD02462B4B9A4210
:104710000CBF01230023DBB2002B02D0DFED247A93
:1047200041E0079B0133089A134408930898FCF76B
:1047300027F8034605930898FFF732FE0490049883
:10474000FFF76EFD02461D4B9A420CBF012300236A
:10475000DBB2002B02D0DFED167A24E04FF07E535F
:104760000B9300230A930A9A059B9A420BDADDED1C
:104770000B7AB2EE047A67EE877ACDED0B7A0A9B5C
:1047800001330A93EFE7069B07EE903AB8EEE77A1B
:10479000049B07EE903AB8EEE76ADDED0B6AC6EED1
:1047A000267A77EE277AB0EE670A0DB05DF804FB43
:1047B0000000C07FF4DE0120A4B1060830E48C12B2
:1047C00000B587B0019000910198FBF7D9FF03462F
:1047D00004930098FBF7D4FF03460393049A039BCA
:1047E0009A4201D000233CE000230593059A049BE4
:1047F0009A4235DA059B019A13441B78402B0CD959
:10480000059B019A13441B785A2B06D8059B019AE5
:1048100013441B7803F1200204E0059B019A134422
:104820001B781A46059B00990B441B78402B0BD92B
:10483000059B00990B441B785A2B05D8059B0099C2
:104840000B441B78203303E0059B00990B441B7835
:104850009A4201D0002304E0059B01330593C5E78C
:104860000123184607B05DF804FB00BF00000000FC
:1048700082B003468DF807309DF80730402B07D9EA
:104880009DF807305A2B03D89DF80730203301E0FC
:104890009DF80730184602B0704700BF00000000C6
:1048A00000B587B0019000910198FBF769FF0346BE
:1048B00004930098FBF764FF03460393049A039B59
:1048C0009A4201D0002316E000230593059A049B29
:1048D0009A420FDA059B019A13441A78059B0099B6
:1048E0000B441B789A4201D0002304E0059B01335E
:1048F0000593EBE70123184607B05DF804FB00BF02
:1049000000B587B08DED050ACDED040A8DED031AD3
:10491000CDED021A8DED012A9DED057ADDED047ACB
:10492000B4EEE77AF1EE10FA22DBDDED037AF5EE74
:10493000C07AF1EE10FA02D8DDED057A3AE09DED8D
:10494000057ADDED047A77EE676A9DED037ADDED99
:10495000017A67EE277AF0EE670AB0EE660AFFF793
:1049600097FCB0EE407ADDED047A77EE277A21E00D
:10497000DDED027AF5EEC07AF1EE10FA02D8DDED47
:10498000057A17E09DED047ADDED057A77EE676A2A
:104990009DED027ADDED017A67EE277AF0EE670A87
:1049A000B0EE660AFFF774FCB0EE407ADDED047AF3
:1049B00077EEC77AB0EE670A07B05DF804FB00BF78
:1049C00086B08DED010A03468DF80330DDED017AE6
:1049D000B8EE007AF4EEC77AF1EE10FA02D5DFED08
:1049E000267A45E0DDED017AF5EEC07AF1EE10FAB7
:1049F00002DDF7EE007A3BE0DDED017AB7EE007AFA
:104A000077EE877ACDED017A019B0593012304931C
:104A10004FF07E530393012302939DF80330029AD3
:104A20009A421FDC049B029A02FB03F30493049B4B
:104A300007EE903AB8EEE77ADDED056AC6EE877AC2
:104A40009DED037A77EE277ACDED037A9DED057A19
:104A5000DDED017A67EE277ACDED057A029B013311
:104A60000293DAE79DED037ADFED046AC7EE267A5A
:104A7000B0EE670A06B070477368513F4DF82D409D
:104A800000B583B08DED010A04209DED010AFFF70A
:104A900097FFF0EE407AB0EE670A03B05DF804FBD2
:104AA00000B583B001900021019800F019F8019B36
:104AB000184603B05DF804FB000000000000000091
:104AC00000B583B0019000910099019800F008F8BA
:104AD000019B184603B05DF804FB00BF0000000016
:104AE00082B001900091019B009A1A6002B0704759
:104AF00000B585B00390029113468DF807309DF8FC
:104B00000730002B08D09DF80730012B04D007494F
:104B10000B200EF07DFF06E0039B1A68029B1344F6
:104B20009DF807201A7005B05DF804FBB4B10608C3
:104B300000B583B00190019B00225A60019B0022C6
:104B40009A60019800F034F8019B184603B05DF8B4
:104B500004FB00BF00000000000000000000000097
:104B600000B585B00390029101920398FFF7E0FF32
:104B7000019A0299039800F00BF8039B184605B0C0
:104B80005DF804FB000000000000000000000000D1
:104B900084B0039002910192039B029A9A60039B56
:104BA000019A5A6004B07047000000000000000045
:104BB00082B00190019B00221A6002B0704700BFD2
:104BC00082B001900091019B9A68009B9B00134466
:104BD0001B6807EE903AB0EE670A02B0704700BF5C
:104BE00030B589B005900491059B9A68049B03F148
:104BF0008043013B9B001344D3ED007AB7EE007A6B
:104C0000F4EE477AF1EE10FA15D0059B9A68049BF2
:104C100003F18043013B9B0013441B681846FCF7DB
:104C20003BFA03460C461A462346244941F2D97002
:104C30000EF0EEFE3FE000230793049B013B079A32
:104C40009A4238DA059B9A68079B9B00134493EDC0
:104C5000007A059B9A68079B01339B001344D3EDB0
:104C6000007AB4EEE77AF1EE10FA20DB059B9A6841
:104C7000079B9B0013441B681846FCF70DFA04467B
:104C80000D46059B9A68079B01339B0013441B68E4
:104C90001846FCF701FA02460B46CDE90223CDE99E
:104CA0000045079A064941F2DA700EF0B1FE079B03
:104CB00001330793C1E709B030BD00BFC4B1060896
:104CC000ECB1060800000000000000000000000039
:104CD00084B0039002910192039B5A68029B9B004F
:104CE00013441A68019B13441B78184604B070479C
:104CF00086B003908DED020A0191019B013B059363
:104D0000059B002B14DB039B9A68059B9B001344B7
:104D1000D3ED007A9DED027AB4EEE77AF1EE10FA67
:104D200002DD059B013304E0059B013B0593E7E7AA
:104D30000023184606B07047000000000000000085
:104D400000B587B003908DED020A01910023059311
:104D5000059A019B9A4215DA039B9A68059B9B0072
:104D60001344D3ED007ADDED020AB0EE670AFFF7D7
:104D7000F7FB0346002B01D0059B05E0059B0133A3
:104D80000593E5E74FF0FF33184607B05DF804FBE5
:104D900000B585B0039002918DED010A039B9B68DD
:104DA000002B05D1074941F63A200EF031FE06E00E
:104DB000039B9A68029B9B001344019A1A6005B0FA
:104DC0005DF804FB10B206080000000000000000BF
:104DD000014B9B6918467047F8270020000000002F
:104DE00084B0039002910192039B029A5A60039B44
:104DF000019A9A60054B1A68039B1A60034A039B49
:104E00001360039B184604B0704700BF58DF0120B1
:104E100000B583B00190019800F00AF8019B184694
:104E200003B05DF804FB00BF0000000000000000BC
:104E300082B00190019B00221A60019B0022DA607F
:104E4000019B034A5A60019B00229A6002B070479E
:104E50000000C07F00000000000000000000000013
:104E600082B001900091019B009A1A6002B07047D5
:104E700084B0039002918DED010A039B029A1A609F
:104E8000039B019A5A6004B0704700BF0000000005
:104E900000B583B00190019B03F50273184600F042
:104EA0006FFE019800F00CF8019B184603B05DF806
:104EB00004FB00BF00000000000000000000000034
:104EC00000B583B00190019B0022C3F80422019B2E
:104ED00003F50273184600F06BFE019B0022C3F835
:104EE0000022019B4FF480720021184658F0FAFA14
:104EF00003B05DF804FB00BF0000000000000000EC
:104F000000B583B0019000910198FFF7D9FF009997
:104F1000019800F005F803B05DF804FB0000000004
:104F200084B001900091019BD3F80432002B04D18E
:104F3000019B009AC3F804220EE0019BD3F80432CF
:104F40000393039BDB68002B03D0039BDB68039375
:104F5000F7E7039B009ADA6004B070470000000096
:104F600082B08DED010ADDED017AF5EE407AF1EEC9
:104F700010FA14BF01230023DBB2184602B07047B9
:104F800000B583B001900091019B03F502731846B0
:104F900000F016FE0346002B0CBF01230023DBB2FA
:104FA000002B09D0009B1A460A4941F275700EF099
:104FB000A7FCDFED097A07E0019B03F502731846B1
:104FC00000F006FEF0EE407AB0EE670A03B05DF83E
:104FD00004FB00BF1CB206080000C07F00000000F8
:104FE00000B585B0039002918DED010A039B03F596
:104FF00002739DED010A184600F012FE039BD3F8E0
:1050000000323F2B16DC039BD3F80022039B02994E
:1050100043F82210039BD3F80032039A40339B00DD
:105020001344019A1A60039BD3F800325A1C039B65
:10503000C3F8002205B05DF804FB00BF00000000CB
:1050400010B5A6B001900091FFF7C2FE03461846C6
:1050500017F01EFE0346402BD4BF01230023DBB212
:10506000002B06D0E04941F664100EF0D1FC00237D
:105070009CE3009B1B687C2B00F2888301A252F802
:1050800023F000BF7F570008795200083953000809
:10509000B5530008DB540008215500089152000860
:1050A000E55200087F5300080354000839540008F3
:1050B0006F540008A5540008B5550008EF550008C6
:1050C000675500088D5700088D5700088D57000858
:1050D0008D5700088D5700088D5700088D57000820
:1050E0008D5700088D5700088D5700088D57000810
:1050F0008D5700088D5700088D5700088D57000800
:105100008D5700088D5700088D5700088D570008EF
:105110008D5700088D5700088D5700088D570008DF
:105120008D5700088D5700088D5700088D570008CF
:105130008D5700088D5700088D5700088D570008BF
:105140008D5700088D5700088D5700088D570008AF
:105150008D5700088D5700088D5700088D5700089F
:105160008D5700088D5700088D5700088D5700088F
:105170008D5700088D5700088D5700088D5700087F
:105180008D5700088D5700088D5700088D5700086F
:105190008D5700088D5700088D5700088D5700085F
:1051A0008D5700088D5700088D5700088D5700084F
:1051B0008D5700088D5700088D5700088D5700083F
:1051C0008D5700088D5700088D5700088D5700082F
:1051D0008D5700088D5700088D5700088D5700081F
:1051E0008D5700088D5700088D5700088D5700080F
:1051F0008D5700088D5700088D5700088D570008FF
:105200008D5700088D5700088D5700088D570008EE
:105210008D5700088D5700088D5700088D570008DE
:105220008D5700088D5700088D5700088D570008CE
:105230008D5700088D5700088D5700088D570008BE
:105240008D5700085B570008815600088D570008ED
:105250008D570008355700088D5700088D570008F6
:105260008D5700088D5700088D5700088D5700088E
:105270003557000829560008009B1A68009BD3ED9B
:10528000017AB0EE670A11460198FFF7A9FE8CE299
:1052900006210198FFF774FE8DED0B0A0621019897
:1052A000FFF76EFE8DED0A0A009B1C689DED0B0A50
:1052B000FFF756FE0346002B08D09DED0A0AFFF7C4
:1052C0004FFE0346002B01D0012300E0002307EE30
:1052D000903AF8EE677AB0EE670A21460198FFF738
:1052E0007FFE62E207210198FFF74AFE8DED0D0A6D
:1052F00007210198FFF744FE8DED0C0A009B1C6806
:105300009DED0D0AFFF72CFE0346002B06D19DED07
:105310000C0AFFF725FE0346002B01D0012300E015
:10532000002307EE903AF8EE677AB0EE670A21465E
:105330000198FFF755FE38E202210198FFF720FEA1
:105340008DED030A02210198FFF71AFE8DED020A86
:10535000009B1B689DED027ADDED037AB4EEE77ADF
:10536000F1EE10FA02D5F7EE007A01E0DFED1F7AD8
:10537000B0EE670A19460198FFF732FE15E20821E0
:105380000198FFF7FDFD8DED0E0A009B1C689DED59
:105390000E0AFFF7E5FD034683F00103DBB207EEDB
:1053A000903AF8EE677AB0EE670A21460198FFF767
:1053B00017FEFAE103210198FFF7E2FD8DED050AE2
:1053C00003210198FFF7DCFD8DED040A009B1B68AB
:1053D0009DED047ADDED057AB4EEE77AF1EE10FA90
:1053E00006DDF7EE007A05E038B20608000000009E
:1053F0005FED027AB0EE670A19460198FFF7F0FDFB
:10540000D3E103210198FFF7BBFD8DED100A0321C5
:105410000198FFF7B5FD8DED0F0A009B1B689DED10
:105420000F7ADDED107A77EE277AB0EE670A19462B
:105430000198FFF7D5FDB8E103210198FFF7A0FD22
:105440008DED120A03210198FFF79AFD8DED110AE7
:10545000009B1B689DED117ADDED127A77EE677A7D
:10546000B0EE670A19460198FFF7BAFD9DE10321E6
:105470000198FFF785FD8DED140A03210198FFF7D0
:105480007FFD8DED130A009B1B689DED137ADDED0A
:10549000147A67EE277AB0EE670A19460198FFF78B
:1054A0009FFD82E103210198FFF76AFD8DED160A49
:1054B00003210198FFF764FD8DED150A009B1B6821
:1054C0009DED157ADDED167AC7EE276AB0EE660A15
:1054D00019460198FFF784FD67E104210198FFF761
:1054E0004FFD8DED070A04210198FFF749FD8DED71
:1054F000060A009B1B689DED067ADDED077AB4EE87
:10550000E77AF1EE10FA02D8F7EE007A01E05FEDEB
:10551000497AB0EE670A19460198FFF761FD44E148
:1055200005210198FFF72CFD8DED090A0521019851
:10553000FFF726FD8DED080A009B1B689DED087A9C
:10554000DDED097AB4EEE77AF1EE10FA02DBF7EE60
:10555000007A01E05FED5B7AB0EE670A19460198C8
:10556000FFF73EFD21E10F210198FFF709FD8DEDC9
:105570001D0A0F210198FFF703FD8DED1C0A0F2175
:105580000198FFF7FDFC8DED1B0A009B1B68DDED0C
:105590001B7AF5EE407AF1EE10FA02D0DDED1C7ABE
:1055A00001E0DDED1D7AB0EE670A19460198FFF7BC
:1055B00017FDFAE00D210198FFF7E2FC8DED180AC6
:1055C0000D210198FFF7DCFC8DED170A009B1C688C
:1055D000DDED180A9DED170AFEF742FEF0EE407A67
:1055E000B0EE670A21460198FFF7FAFCDDE00E21D4
:1055F0000198FFF7C5FC8DED1A0A0E210198FFF7FF
:10560000BFFC8DED190A009B1C68DDED1A0A9DEDAB
:10561000190AFEF73DFEF0EE407AB0EE670A214629
:105620000198FFF7DDFCC0E07C210198FFF7A8FCA2
:105630008DED250ADDED257AFDEEE77A17EE903A3D
:10564000013B2493249B002B11DB249B0F2B0EDCAE
:10565000009B1968574A249BDA339B001344D3ED0F
:10566000007AB0EE670A0198FFF7BAFC9DE0009B54
:105670001B689FED510A19460198FFF7B1FC94E0B1
:1056800071210198FFF77CFC8DED230A71210198AF
:10569000FFF776FC8DED220A71210198FFF770FC6F
:1056A0008DED210ADDED237AFDEEE77A17EE903AD3
:1056B0002093209B002B02DD209B042B08DD009B08
:1056C0001B689FED3D0A19460198FFF789FC6CE0C5
:1056D000209B012B15D1394B1E93009B1C681E9BF0
:1056E0001B681B68DDED220A9DED210A1E98984774
:1056F000F0EE407AB0EE670A21460198FFF770FCA1
:1057000053E02F4A209B52F823301F93009B1C68C4
:105710001F9B1B681B68DDED220A9DED210A1F9867
:105720009847F0EE407AB0EE670A21460198FFF7FD
:1057300057FC3AE0009B1C68224B1B6893F8A83882
:10574000194621482EF09CFEF0EE407AB0EE670A32
:1057500021460198FFF744FC27E0009B1A681B4B89
:1057600003F56C5318331B6807EE903AF8EEE77AAE
:10577000B0EE670A11460198FFF732FC15E01449B4
:1057800041F276700EF0BCF801230FE0009B1C681C
:10579000009B1B68184600F023FBF0EE407AB0EE49
:1057A000670A21460198FFF71BFC0023184626B024
:1057B00010BD00BFA48500100000C07F68E001207C
:1057C000AC1B0020681B002044B20608883600107D
:1057D0004CB20608000000000000000000000000BD
:1057E00000B585B003908DED020A019101990398EF
:1057F000FFF786FB9DED020A039800F019F8F0EE22
:10580000407AB0EE670A05B05DF804FB00000000C6
:1058100082B00190019BD3F80432002B0CBF01230E
:105820000023DBB2184602B0704700BF0000000042
:1058300000B587B001908DED000A0198FFF7E8FFF1
:105840000346002B07D0374941F277700EF058F825
:10585000DFED357A61E0019BD3F804320593019BBB
:1058600003F50273184600F0A3F900230493059B87
:10587000002B2CD0049BC72B07DD2C4941F664106C
:105880000EF0C6F8DFED287A47E0059B1B68722B07
:1058900008D1059B1B689DED000A19460198FFF78A
:1058A0009FFB0DE005990198FFF7CAFB03468DF8B1
:1058B0000F309DF80F30002B02D0DFED1B7A2CE06B
:1058C000059BDB680593049B01330493CFE7019BA1
:1058D00003F50273184600F073F90346012B14BF59
:1058E00001230023DBB2002B0FD0019B03F50273D1
:1058F000184600F065F903461A460D4941F27870E2
:105900000DF0FEFFDFED087A07E0019B03F502735F
:10591000184600F05DF9F0EE407AB0EE670A07B085
:105920005DF804FB64B206080000C07F74B206088C
:1059300080B2060800000000000000000000000027
:1059400000B585B0039002910192039B029A1A6000
:10595000039B019A9A60039800F00AF8039B18468B
:1059600005B05DF804FB00BF00000000000000006F
:1059700082B00190019B00225A6002B0704700BFC4
:1059800082B00190019B5B68184602B0704700BF6F
:1059900000B585B00190019B5A68019B9B689A42B3
:1059A00006DB0C4941F667100EF032F800230DE0DB
:1059B000019B1A68019B5B68581C019948601B0198
:1059C000134403930398FFF733FA039B184605B07B
:1059D0005DF804FBA0B20608000000000000000013
:1059E00082B00190019B1B782F2B05D9019B1B785E
:1059F000392B01D8012300E00023184602B070477C
:105A000000B587B0039002910192039B1B78002B95
:105A100007D0039B1B78202B03D1039B01330393F7
:105A2000F3E7039B1B78002B01D1002328E0202102
:105A30000398FEF78DFC0590059BB3F1FF3F04D161
:105A40000398FAF79DFE03460593059A019B9A4237
:105A500006DB0D4941F664100DF0DAFF00230FE07C
:105A6000059B1A460399029858F0FAFA059B029A88
:105A7000134400221A70059B039A13440393039B5B
:105A8000184607B05DF804FBC0B20608000000002D
:105A900000B585B001900D4B1B680393039B002B51
:105AA0000FD0039B9B6801991846FEF789FE0346B9
:105AB000002B02D0039B5B6804E0039B1B680393ED
:105AC000ECE70023184605B05DF804FB58DF012021
:105AD00000B587B001900091002305930023049343
